{
    "_format": "hh-sol-artifact-1",
    "contractName": "BettingWithInsuranceAndYield",
    "sourceName": "contracts/Betting.sol",
    "abi": [
        {
            "inputs": [
                {
                    "internalType": "address",
                    "name": "_lendingPool",
                    "type": "address"
                },
                {
                    "internalType": "address",
                    "name": "_depositToken",
                    "type": "address"
                },
                {
                    "internalType": "address",
                    "name": "_insuranceToken",
                    "type": "address"
                },
                {
                    "internalType": "address",
                    "name": "_insuranceFund",
                    "type": "address"
                },
                {
                    "internalType": "address",
                    "name": "_arbitrator",
                    "type": "address"
                }
            ],
            "stateMutability": "nonpayable",
            "type": "constructor"
        },
        {
            "anonymous": false,
            "inputs": [
                {
                    "indexed": false,
                    "internalType": "uint256",
                    "name": "betId",
                    "type": "uint256"
                }
            ],
            "name": "BetCancelled",
            "type": "event"
        },
        {
            "anonymous": false,
            "inputs": [
                {
                    "indexed": false,
                    "internalType": "uint256",
                    "name": "betId",
                    "type": "uint256"
                },
                {
                    "indexed": false,
                    "internalType": "address",
                    "name": "creator",
                    "type": "address"
                },
                {
                    "indexed": false,
                    "internalType": "address",
                    "name": "participant",
                    "type": "address"
                },
                {
                    "indexed": false,
                    "internalType": "uint256",
                    "name": "amount",
                    "type": "uint256"
                },
                {
                    "indexed": false,
                    "internalType": "bool",
                    "name": "insuranceOpted",
                    "type": "bool"
                }
            ],
            "name": "BetCreated",
            "type": "event"
        },
        {
            "anonymous": false,
            "inputs": [
                {
                    "indexed": false,
                    "internalType": "uint256",
                    "name": "betId",
                    "type": "uint256"
                }
            ],
            "name": "BetDisputed",
            "type": "event"
        },
        {
            "anonymous": false,
            "inputs": [
                {
                    "indexed": false,
                    "internalType": "uint256",
                    "name": "betId",
                    "type": "uint256"
                },
                {
                    "indexed": false,
                    "internalType": "address",
                    "name": "winner",
                    "type": "address"
                },
                {
                    "indexed": false,
                    "internalType": "uint256",
                    "name": "payout",
                    "type": "uint256"
                }
            ],
            "name": "BetResolved",
            "type": "event"
        },
        {
            "anonymous": false,
            "inputs": [
                {
                    "indexed": false,
                    "internalType": "uint256",
                    "name": "betId",
                    "type": "uint256"
                },
                {
                    "indexed": false,
                    "internalType": "address",
                    "name": "winner",
                    "type": "address"
                }
            ],
            "name": "DisputeResolved",
            "type": "event"
        },
        {
            "anonymous": false,
            "inputs": [
                {
                    "indexed": false,
                    "internalType": "uint256",
                    "name": "betId",
                    "type": "uint256"
                },
                {
                    "indexed": false,
                    "internalType": "address",
                    "name": "claimant",
                    "type": "address"
                },
                {
                    "indexed": false,
                    "internalType": "uint256",
                    "name": "payout",
                    "type": "uint256"
                }
            ],
            "name": "InsuranceClaimed",
            "type": "event"
        },
        {
            "anonymous": false,
            "inputs": [
                {
                    "indexed": false,
                    "internalType": "uint256",
                    "name": "betId",
                    "type": "uint256"
                },
                {
                    "indexed": false,
                    "internalType": "address",
                    "name": "participant",
                    "type": "address"
                }
            ],
            "name": "ParticipantJoined",
            "type": "event"
        },
        {
            "inputs": [],
            "name": "arbitrator",
            "outputs": [
                {
                    "internalType": "address",
                    "name": "",
                    "type": "address"
                }
            ],
            "stateMutability": "view",
            "type": "function"
        },
        {
            "inputs": [],
            "name": "betCounter",
            "outputs": [
                {
                    "internalType": "uint256",
                    "name": "",
                    "type": "uint256"
                }
            ],
            "stateMutability": "view",
            "type": "function"
        },
        {
            "inputs": [
                {
                    "internalType": "uint256",
                    "name": "",
                    "type": "uint256"
                }
            ],
            "name": "bets",
            "outputs": [
                {
                    "internalType": "address",
                    "name": "creator",
                    "type": "address"
                },
                {
                    "internalType": "address",
                    "name": "participant",
                    "type": "address"
                },
                {
                    "internalType": "uint256",
                    "name": "amount",
                    "type": "uint256"
                },
                {
                    "internalType": "bool",
                    "name": "resolved",
                    "type": "bool"
                },
                {
                    "internalType": "address",
                    "name": "winner",
                    "type": "address"
                },
                {
                    "internalType": "uint256",
                    "name": "createdAt",
                    "type": "uint256"
                },
                {
                    "internalType": "bool",
                    "name": "disputed",
                    "type": "bool"
                },
                {
                    "internalType": "address",
                    "name": "creatorConfirmed",
                    "type": "address"
                },
                {
                    "internalType": "address",
                    "name": "participantConfirmed",
                    "type": "address"
                },
                {
                    "internalType": "bool",
                    "name": "insuranceOpted",
                    "type": "bool"
                },
                {
                    "internalType": "bool",
                    "name": "insuranceClaimed",
                    "type": "bool"
                }
            ],
            "stateMutability": "view",
            "type": "function"
        },
        {
            "inputs": [
                {
                    "internalType": "uint256",
                    "name": "_betId",
                    "type": "uint256"
                }
            ],
            "name": "cancelBet",
            "outputs": [],
            "stateMutability": "nonpayable",
            "type": "function"
        },
        {
            "inputs": [
                {
                    "internalType": "uint256",
                    "name": "_betId",
                    "type": "uint256"
                }
            ],
            "name": "claimInsurance",
            "outputs": [],
            "stateMutability": "nonpayable",
            "type": "function"
        },
        {
            "inputs": [
                {
                    "internalType": "uint256",
                    "name": "_betId",
                    "type": "uint256"
                },
                {
                    "internalType": "address",
                    "name": "_winner",
                    "type": "address"
                }
            ],
            "name": "confirmWinner",
            "outputs": [],
            "stateMutability": "nonpayable",
            "type": "function"
        },
        {
            "inputs": [
                {
                    "internalType": "address",
                    "name": "_participant",
                    "type": "address"
                },
                {
                    "internalType": "bool",
                    "name": "_insuranceOpted",
                    "type": "bool"
                }
            ],
            "name": "createBet",
            "outputs": [],
            "stateMutability": "payable",
            "type": "function"
        },
        {
            "inputs": [],
            "name": "depositToken",
            "outputs": [
                {
                    "internalType": "contract IERC20",
                    "name": "",
                    "type": "address"
                }
            ],
            "stateMutability": "view",
            "type": "function"
        },
        {
            "inputs": [
                {
                    "internalType": "uint256",
                    "name": "_betId",
                    "type": "uint256"
                }
            ],
            "name": "disputeBet",
            "outputs": [],
            "stateMutability": "nonpayable",
            "type": "function"
        },
        {
            "inputs": [],
            "name": "insuranceFund",
            "outputs": [
                {
                    "internalType": "address",
                    "name": "",
                    "type": "address"
                }
            ],
            "stateMutability": "view",
            "type": "function"
        },
        {
            "inputs": [],
            "name": "insuranceToken",
            "outputs": [
                {
                    "internalType": "contract IERC20",
                    "name": "",
                    "type": "address"
                }
            ],
            "stateMutability": "view",
            "type": "function"
        },
        {
            "inputs": [
                {
                    "internalType": "uint256",
                    "name": "_betId",
                    "type": "uint256"
                }
            ],
            "name": "joinBet",
            "outputs": [],
            "stateMutability": "payable",
            "type": "function"
        },
        {
            "inputs": [],
            "name": "lendingPool",
            "outputs": [
                {
                    "internalType": "contract IAaveLendingPool",
                    "name": "",
                    "type": "address"
                }
            ],
            "stateMutability": "view",
            "type": "function"
        },
        {
            "inputs": [
                {
                    "internalType": "uint256",
                    "name": "_betId",
                    "type": "uint256"
                },
                {
                    "internalType": "address",
                    "name": "_winner",
                    "type": "address"
                }
            ],
            "name": "resolveDispute",
            "outputs": [],
            "stateMutability": "nonpayable",
            "type": "function"
        },
        {
            "stateMutability": "payable",
            "type": "receive"
        }
    ],
    "bytecode": "0x608060405234801561001057600080fd5b5060405161349a38038061349a833981810160405281019061003291906102a5565b84600260006101000a81548173ffffffffffffffffffffffffffffffffffffffff021916908373ffffffffffffffffffffffffffffffffffffffff16021790555083600360006101000a81548173ffffffffffffffffffffffffffffffffffffffff021916908373ffffffffffffffffffffffffffffffffffffffff16021790555082600460006101000a81548173ffffffffffffffffffffffffffffffffffffffff021916908373ffffffffffffffffffffffffffffffffffffffff16021790555081600560006101000a81548173ffffffffffffffffffffffffffffffffffffffff021916908373ffffffffffffffffffffffffffffffffffffffff16021790555080600660006101000a81548173ffffffffffffffffffffffffffffffffffffffff021916908373ffffffffffffffffffffffffffffffffffffffff160217905550600360009054906101000a900473ffffffffffffffffffffffffffffffffffffffff1673ffffffffffffffffffffffffffffffffffffffff1663095ea7b3867fffffffffffffffffffffffffffffffffffffffffffffffffffffffffffffffff6040518363ffffffff1660e01b81526004016101f4929190610348565b6020604051808303816000875af1158015610213573d6000803e3d6000fd5b505050506040513d601f19601f8201168201806040525081019061023791906103a9565b5050505050506103d6565b600080fd5b600073ffffffffffffffffffffffffffffffffffffffff82169050919050565b600061027282610247565b9050919050565b61028281610267565b811461028d57600080fd5b50565b60008151905061029f81610279565b92915050565b600080600080600060a086880312156102c1576102c0610242565b5b60006102cf88828901610290565b95505060206102e088828901610290565b94505060406102f188828901610290565b935050606061030288828901610290565b925050608061031388828901610290565b9150509295509295909350565b61032981610267565b82525050565b6000819050919050565b6103428161032f565b82525050565b600060408201905061035d6000830185610320565b61036a6020830184610339565b9392505050565b60008115159050919050565b61038681610371565b811461039157600080fd5b50565b6000815190506103a38161037d565b92915050565b6000602082840312156103bf576103be610242565b5b60006103cd84828501610394565b91505092915050565b6130b5806103e56000396000f3fe6080604052600436106100e15760003560e01c80638a9f90571161007f578063b790230311610059578063b7902303146102a0578063c89039c5146102cb578063da9c7a58146102f6578063f85920d814610312576100e8565b80638a9f905714610221578063a416f5ab1461024a578063a59a997314610275576100e8565b8063357401f5116100bb578063357401f51461018857806339fb3f45146101b15780636cc6cde1146101cd578063729b59ef146101f8576100e8565b806307159868146100ed5780630e33599d1461011857806322af00fa14610141576100e8565b366100e857005b600080fd5b3480156100f957600080fd5b5061010261033b565b60405161010f9190611f64565b60405180910390f35b34801561012457600080fd5b5061013f600480360381019061013a9190611ff8565b610361565b005b34801561014d57600080fd5b5061016860048036038101906101639190612038565b6103ff565b60405161017f9b9a9998979695949392919061209e565b60405180910390f35b34801561019457600080fd5b506101af60048036038101906101aa9190612038565b61052d565b005b6101cb60048036038101906101c69190612038565b610a3f565b005b3480156101d957600080fd5b506101e2610c85565b6040516101ef9190612149565b60405180910390f35b34801561020457600080fd5b5061021f600480360381019061021a9190612038565b610cab565b005b34801561022d57600080fd5b5061024860048036038101906102439190611ff8565b610ea9565b005b34801561025657600080fd5b5061025f611307565b60405161026c9190612164565b60405180910390f35b34801561028157600080fd5b5061028a61130d565b60405161029791906121a0565b60405180910390f35b3480156102ac57600080fd5b506102b5611333565b6040516102c29190612149565b60405180910390f35b3480156102d757600080fd5b506102e0611359565b6040516102ed9190611f64565b60405180910390f35b610310600480360381019061030b91906121e7565b61137f565b005b34801561031e57600080fd5b5061033960048036038101906103349190612038565b6119b9565b005b600460009054906101000a900473ffffffffffffffffffffffffffffffffffffffff1681565b600660009054906101000a900473ffffffffffffffffffffffffffffffffffffffff1673ffffffffffffffffffffffffffffffffffffffff163373ffffffffffffffffffffffffffffffffffffffff16146103f1576040517f08c379a00000000000000000000000000000000000000000000000000000000081526004016103e8906122aa565b60405180910390fd5b6103fb8282611c15565b5050565b60006020528060005260406000206000915090508060000160009054906101000a900473ffffffffffffffffffffffffffffffffffffffff16908060010160009054906101000a900473ffffffffffffffffffffffffffffffffffffffff16908060020154908060030160009054906101000a900460ff16908060030160019054906101000a900473ffffffffffffffffffffffffffffffffffffffff16908060040154908060050160009054906101000a900460ff16908060050160019054906101000a900473ffffffffffffffffffffffffffffffffffffffff16908060060160009054906101000a900473ffffffffffffffffffffffffffffffffffffffff16908060060160149054906101000a900460ff16908060060160159054906101000a900460ff1690508b565b8060008082815260200190815260200160002060000160009054906101000a900473ffffffffffffffffffffffffffffffffffffffff1673ffffffffffffffffffffffffffffffffffffffff163373ffffffffffffffffffffffffffffffffffffffff16146105d1576040517f08c379a00000000000000000000000000000000000000000000000000000000081526004016105c89061233c565b60405180910390fd5b600080600084815260200190815260200160002090508060030160009054906101000a900460ff1615610639576040517f08c379a0000000000000000000000000000000000000000000000000000000008152600401610630906123a8565b60405180910390fd5b62015180816004015461064c91906123f7565b421161068d576040517f08c379a000000000000000000000000000000000000000000000000000000000815260040161068490612477565b60405180910390fd5b8060050160009054906101000a900460ff16156106df576040517f08c379a00000000000000000000000000000000000000000000000000000000081526004016106d6906124e3565b60405180910390fd5b6000600260009054906101000a900473ffffffffffffffffffffffffffffffffffffffff1673ffffffffffffffffffffffffffffffffffffffff166369328dec600360009054906101000a900473ffffffffffffffffffffffffffffffffffffffff167fffffffffffffffffffffffffffffffffffffffffffffffffffffffffffffffff306040518463ffffffff1660e01b815260040161078293929190612503565b6020604051808303816000875af11580156107a1573d6000803e3d6000fd5b505050506040513d601f19601f820116820180604052508101906107c5919061254f565b9050600360009054906101000a900473ffffffffffffffffffffffffffffffffffffffff1673ffffffffffffffffffffffffffffffffffffffff1663a9059cbb8360000160009054906101000a900473ffffffffffffffffffffffffffffffffffffffff16836040518363ffffffff1660e01b815260040161084892919061257c565b6020604051808303816000875af1158015610867573d6000803e3d6000fd5b505050506040513d601f19601f8201168201806040525081019061088b91906125ba565b6108ca576040517f08c379a00000000000000000000000000000000000000000000000000000000081526004016108c190612633565b60405180910390fd5b600080858152602001908152602001600020600080820160006101000a81549073ffffffffffffffffffffffffffffffffffffffff02191690556001820160006101000a81549073ffffffffffffffffffffffffffffffffffffffff021916905560028201600090556003820160006101000a81549060ff02191690556003820160016101000a81549073ffffffffffffffffffffffffffffffffffffffff021916905560048201600090556005820160006101000a81549060ff02191690556005820160016101000a81549073ffffffffffffffffffffffffffffffffffffffff02191690556006820160006101000a81549073ffffffffffffffffffffffffffffffffffffffff02191690556006820160146101000a81549060ff02191690556006820160156101000a81549060ff021916905550507fe3906e8d1e2167ef706b023e6e83af697db5cd38f233c71bf5021b26b316c3a284604051610a319190612164565b60405180910390a150505050565b8060008082815260200190815260200160002060010160009054906101000a900473ffffffffffffffffffffffffffffffffffffffff1673ffffffffffffffffffffffffffffffffffffffff163373ffffffffffffffffffffffffffffffffffffffff1614610ae3576040517f08c379a0000000000000000000000000000000000000000000000000000000008152600401610ada906126c5565b60405180910390fd5b6000806000848152602001908152602001600020905080600201543414610b3f576040517f08c379a0000000000000000000000000000000000000000000000000000000008152600401610b3690612731565b60405180910390fd5b8060030160009054906101000a900460ff1615610b91576040517f08c379a0000000000000000000000000000000000000000000000000000000008152600401610b88906123a8565b60405180910390fd5b600260009054906101000a900473ffffffffffffffffffffffffffffffffffffffff1673ffffffffffffffffffffffffffffffffffffffff1663e8eda9df600360009054906101000a900473ffffffffffffffffffffffffffffffffffffffff16343060006040518563ffffffff1660e01b8152600401610c15949392919061279a565b600060405180830381600087803b158015610c2f57600080fd5b505af1158015610c43573d6000803e3d6000fd5b505050507f7dd8cb04159701bc1976c246434d7d96812782e7489e6c5c34db49a388fe9e808333604051610c789291906127df565b60405180910390a1505050565b600660009054906101000a900473ffffffffffffffffffffffffffffffffffffffff1681565b600080600083815260200190815260200160002090508060030160009054906101000a900460ff1615610d13576040517f08c379a0000000000000000000000000000000000000000000000000000000008152600401610d0a906123a8565b60405180910390fd5b8060000160009054906101000a900473ffffffffffffffffffffffffffffffffffffffff1673ffffffffffffffffffffffffffffffffffffffff163373ffffffffffffffffffffffffffffffffffffffff161480610dc057508060010160009054906101000a900473ffffffffffffffffffffffffffffffffffffffff1673ffffffffffffffffffffffffffffffffffffffff163373ffffffffffffffffffffffffffffffffffffffff16145b610dff576040517f08c379a0000000000000000000000000000000000000000000000000000000008152600401610df690612854565b60405180910390fd5b8060050160009054906101000a900460ff1615610e51576040517f08c379a0000000000000000000000000000000000000000000000000000000008152600401610e48906128c0565b60405180910390fd5b60018160050160006101000a81548160ff0219169083151502179055507f2eb886af2df662569f6c35e5bad6da9633d0936f3b433a55af6645d37ba1214482604051610e9d9190612164565b60405180910390a15050565b600080600084815260200190815260200160002090508060030160009054906101000a900460ff1615610f11576040517f08c379a0000000000000000000000000000000000000000000000000000000008152600401610f08906123a8565b60405180910390fd5b8060050160009054906101000a900460ff1615610f63576040517f08c379a0000000000000000000000000000000000000000000000000000000008152600401610f5a9061292c565b60405180910390fd5b8060000160009054906101000a900473ffffffffffffffffffffffffffffffffffffffff1673ffffffffffffffffffffffffffffffffffffffff168273ffffffffffffffffffffffffffffffffffffffff16148061101057508060010160009054906101000a900473ffffffffffffffffffffffffffffffffffffffff1673ffffffffffffffffffffffffffffffffffffffff168273ffffffffffffffffffffffffffffffffffffffff16145b61104f576040517f08c379a000000000000000000000000000000000000000000000000000000000815260040161104690612998565b60405180910390fd5b8060000160009054906101000a900473ffffffffffffffffffffffffffffffffffffffff1673ffffffffffffffffffffffffffffffffffffffff163373ffffffffffffffffffffffffffffffffffffffff1614806110fc57508060010160009054906101000a900473ffffffffffffffffffffffffffffffffffffffff1673ffffffffffffffffffffffffffffffffffffffff163373ffffffffffffffffffffffffffffffffffffffff16145b61113b576040517f08c379a000000000000000000000000000000000000000000000000000000000815260040161113290612a2a565b60405180910390fd5b8060000160009054906101000a900473ffffffffffffffffffffffffffffffffffffffff1673ffffffffffffffffffffffffffffffffffffffff163373ffffffffffffffffffffffffffffffffffffffff16036111da57818160050160016101000a81548173ffffffffffffffffffffffffffffffffffffffff021916908373ffffffffffffffffffffffffffffffffffffffff16021790555061121e565b818160060160006101000a81548173ffffffffffffffffffffffffffffffffffffffff021916908373ffffffffffffffffffffffffffffffffffffffff1602179055505b8060060160009054906101000a900473ffffffffffffffffffffffffffffffffffffffff1673ffffffffffffffffffffffffffffffffffffffff168160050160019054906101000a900473ffffffffffffffffffffffffffffffffffffffff1673ffffffffffffffffffffffffffffffffffffffff161480156112f25750600073ffffffffffffffffffffffffffffffffffffffff168160050160019054906101000a900473ffffffffffffffffffffffffffffffffffffffff1673ffffffffffffffffffffffffffffffffffffffff1614155b15611302576113018383611c15565b5b505050565b60015481565b600260009054906101000a900473ffffffffffffffffffffffffffffffffffffffff1681565b600560009054906101000a900473ffffffffffffffffffffffffffffffffffffffff1681565b600360009054906101000a900473ffffffffffffffffffffffffffffffffffffffff1681565b600034116113c2576040517f08c379a00000000000000000000000000000000000000000000000000000000081526004016113b990612abc565b60405180910390fd5b600073ffffffffffffffffffffffffffffffffffffffff168273ffffffffffffffffffffffffffffffffffffffff1603611431576040517f08c379a000000000000000000000000000000000000000000000000000000000815260040161142890612b4e565b60405180910390fd5b3373ffffffffffffffffffffffffffffffffffffffff168273ffffffffffffffffffffffffffffffffffffffff160361149f576040517f08c379a000000000000000000000000000000000000000000000000000000000815260040161149690612be0565b60405180910390fd5b6000349050600260009054906101000a900473ffffffffffffffffffffffffffffffffffffffff1673ffffffffffffffffffffffffffffffffffffffff1663e8eda9df600360009054906101000a900473ffffffffffffffffffffffffffffffffffffffff16833060006040518563ffffffff1660e01b8152600401611528949392919061279a565b600060405180830381600087803b15801561154257600080fd5b505af1158015611556573d6000803e3d6000fd5b50505050811561168257600060646005836115719190612c00565b61157b9190612c71565b9050600460009054906101000a900473ffffffffffffffffffffffffffffffffffffffff1673ffffffffffffffffffffffffffffffffffffffff166323b872dd33600560009054906101000a900473ffffffffffffffffffffffffffffffffffffffff16846040518463ffffffff1660e01b81526004016115fe93929190612ca2565b6020604051808303816000875af115801561161d573d6000803e3d6000fd5b505050506040513d601f19601f8201168201806040525081019061164191906125ba565b611680576040517f08c379a000000000000000000000000000000000000000000000000000000000815260040161167790612d4b565b60405180910390fd5b505b6040518061016001604052803373ffffffffffffffffffffffffffffffffffffffff1681526020018473ffffffffffffffffffffffffffffffffffffffff168152602001828152602001600015158152602001600073ffffffffffffffffffffffffffffffffffffffff168152602001428152602001600015158152602001600073ffffffffffffffffffffffffffffffffffffffff168152602001600073ffffffffffffffffffffffffffffffffffffffff168152602001831515815260200160001515815250600080600154815260200190815260200160002060008201518160000160006101000a81548173ffffffffffffffffffffffffffffffffffffffff021916908373ffffffffffffffffffffffffffffffffffffffff16021790555060208201518160010160006101000a81548173ffffffffffffffffffffffffffffffffffffffff021916908373ffffffffffffffffffffffffffffffffffffffff1602179055506040820151816002015560608201518160030160006101000a81548160ff02191690831515021790555060808201518160030160016101000a81548173ffffffffffffffffffffffffffffffffffffffff021916908373ffffffffffffffffffffffffffffffffffffffff16021790555060a0820151816004015560c08201518160050160006101000a81548160ff02191690831515021790555060e08201518160050160016101000a81548173ffffffffffffffffffffffffffffffffffffffff021916908373ffffffffffffffffffffffffffffffffffffffff1602179055506101008201518160060160006101000a81548173ffffffffffffffffffffffffffffffffffffffff021916908373ffffffffffffffffffffffffffffffffffffffff1602179055506101208201518160060160146101000a81548160ff0219169083151502179055506101408201518160060160156101000a81548160ff0219169083151502179055509050507fe213eee614eeaa62249a5cb63628ebc9dae14d6058d1106d5d059372aeaae03860015433858486604051611994959493929190612d6b565b60405180910390a1600160008154809291906119af90612dbe565b9190505550505050565b600080600083815260200190815260200160002090508060030160009054906101000a900460ff1615611a21576040517f08c379a0000000000000000000000000000000000000000000000000000000008152600401611a1890612e78565b60405180910390fd5b8060060160149054906101000a900460ff16611a72576040517f08c379a0000000000000000000000000000000000000000000000000000000008152600401611a6990612ee4565b60405180910390fd5b8060060160159054906101000a900460ff1615611ac4576040517f08c379a0000000000000000000000000000000000000000000000000000000008152600401611abb90612f50565b60405180910390fd5b60018160060160156101000a81548160ff021916908315150217905550600060028260020154611af49190612c00565b9050600460009054906101000a900473ffffffffffffffffffffffffffffffffffffffff1673ffffffffffffffffffffffffffffffffffffffff1663a9059cbb33836040518363ffffffff1660e01b8152600401611b5392919061257c565b6020604051808303816000875af1158015611b72573d6000803e3d6000fd5b505050506040513d601f19601f82011682018060405250810190611b9691906125ba565b611bd5576040517f08c379a0000000000000000000000000000000000000000000000000000000008152600401611bcc90612fbc565b60405180910390fd5b7f9575558b5d6ac5e60a8a8ad59be28fbdca3803658e380fdea5d922214559f8cd833383604051611c0893929190612fdc565b60405180910390a1505050565b600080600084815260200190815260200160002090508060030160009054906101000a900460ff1615611c7d576040517f08c379a0000000000000000000000000000000000000000000000000000000008152600401611c74906123a8565b60405180910390fd5b60018160030160006101000a81548160ff021916908315150217905550818160030160016101000a81548173ffffffffffffffffffffffffffffffffffffffff021916908373ffffffffffffffffffffffffffffffffffffffff1602179055506000600260009054906101000a900473ffffffffffffffffffffffffffffffffffffffff1673ffffffffffffffffffffffffffffffffffffffff166369328dec600360009054906101000a900473ffffffffffffffffffffffffffffffffffffffff167fffffffffffffffffffffffffffffffffffffffffffffffffffffffffffffffff306040518463ffffffff1660e01b8152600401611d8093929190612503565b6020604051808303816000875af1158015611d9f573d6000803e3d6000fd5b505050506040513d601f19601f82011682018060405250810190611dc3919061254f565b9050600360009054906101000a900473ffffffffffffffffffffffffffffffffffffffff1673ffffffffffffffffffffffffffffffffffffffff1663a9059cbb84836040518363ffffffff1660e01b8152600401611e2292919061257c565b6020604051808303816000875af1158015611e41573d6000803e3d6000fd5b505050506040513d601f19601f82011682018060405250810190611e6591906125ba565b611ea4576040517f08c379a0000000000000000000000000000000000000000000000000000000008152600401611e9b9061305f565b60405180910390fd5b7f96a2bff66387be9e7910e4a9ddf9ba9d0b23439aa8c0790b867617d60a889143848483604051611ed793929190612fdc565b60405180910390a150505050565b600073ffffffffffffffffffffffffffffffffffffffff82169050919050565b6000819050919050565b6000611f2a611f25611f2084611ee5565b611f05565b611ee5565b9050919050565b6000611f3c82611f0f565b9050919050565b6000611f4e82611f31565b9050919050565b611f5e81611f43565b82525050565b6000602082019050611f796000830184611f55565b92915050565b600080fd5b6000819050919050565b611f9781611f84565b8114611fa257600080fd5b50565b600081359050611fb481611f8e565b92915050565b6000611fc582611ee5565b9050919050565b611fd581611fba565b8114611fe057600080fd5b50565b600081359050611ff281611fcc565b92915050565b6000806040838503121561200f5761200e611f7f565b5b600061201d85828601611fa5565b925050602061202e85828601611fe3565b9150509250929050565b60006020828403121561204e5761204d611f7f565b5b600061205c84828501611fa5565b91505092915050565b61206e81611fba565b82525050565b61207d81611f84565b82525050565b60008115159050919050565b61209881612083565b82525050565b6000610160820190506120b4600083018e612065565b6120c1602083018d612065565b6120ce604083018c612074565b6120db606083018b61208f565b6120e8608083018a612065565b6120f560a0830189612074565b61210260c083018861208f565b61210f60e0830187612065565b61211d610100830186612065565b61212b61012083018561208f565b61213961014083018461208f565b9c9b505050505050505050505050565b600060208201905061215e6000830184612065565b92915050565b60006020820190506121796000830184612074565b92915050565b600061218a82611f31565b9050919050565b61219a8161217f565b82525050565b60006020820190506121b56000830184612191565b92915050565b6121c481612083565b81146121cf57600080fd5b50565b6000813590506121e1816121bb565b92915050565b600080604083850312156121fe576121fd611f7f565b5b600061220c85828601611fe3565b925050602061221d858286016121d2565b9150509250929050565b600082825260208201905092915050565b7f4f6e6c79207468652061726269747261746f722063616e20706572666f726d2060008201527f7468697320616374696f6e000000000000000000000000000000000000000000602082015250565b6000612294602b83612227565b915061229f82612238565b604082019050919050565b600060208201905081810360008301526122c381612287565b9050919050565b7f4f6e6c79207468652063726561746f722063616e20706572666f726d2074686960008201527f7320616374696f6e000000000000000000000000000000000000000000000000602082015250565b6000612326602883612227565b9150612331826122ca565b604082019050919050565b6000602082019050818103600083015261235581612319565b9050919050565b7f42657420616c7265616479207265736f6c766564000000000000000000000000600082015250565b6000612392601483612227565b915061239d8261235c565b602082019050919050565b600060208201905081810360008301526123c181612385565b9050919050565b7f4e487b7100000000000000000000000000000000000000000000000000000000600052601160045260246000fd5b600061240282611f84565b915061240d83611f84565b9250828201905080821115612425576124246123c8565b5b92915050565b7f43616e6e6f742063616e63656c206265666f726520323420686f757273000000600082015250565b6000612461601d83612227565b915061246c8261242b565b602082019050919050565b6000602082019050818103600083015261249081612454565b9050919050565b7f43616e6e6f742063616e63656c20612064697370757465642062657400000000600082015250565b60006124cd601c83612227565b91506124d882612497565b602082019050919050565b600060208201905081810360008301526124fc816124c0565b9050919050565b60006060820190506125186000830186612065565b6125256020830185612074565b6125326040830184612065565b949350505050565b60008151905061254981611f8e565b92915050565b60006020828403121561256557612564611f7f565b5b60006125738482850161253a565b91505092915050565b60006040820190506125916000830185612065565b61259e6020830184612074565b9392505050565b6000815190506125b4816121bb565b92915050565b6000602082840312156125d0576125cf611f7f565b5b60006125de848285016125a5565b91505092915050565b7f526566756e64207472616e73666572206661696c656400000000000000000000600082015250565b600061261d601683612227565b9150612628826125e7565b602082019050919050565b6000602082019050818103600083015261264c81612610565b9050919050565b7f4f6e6c7920746865207061727469636970616e742063616e20706572666f726d60008201527f207468697320616374696f6e0000000000000000000000000000000000000000602082015250565b60006126af602c83612227565b91506126ba82612653565b604082019050919050565b600060208201905081810360008301526126de816126a2565b9050919050565b7f42657420616d6f756e74206d69736d6174636800000000000000000000000000600082015250565b600061271b601383612227565b9150612726826126e5565b602082019050919050565b6000602082019050818103600083015261274a8161270e565b9050919050565b6000819050919050565b600061ffff82169050919050565b600061278461277f61277a84612751565b611f05565b61275b565b9050919050565b61279481612769565b82525050565b60006080820190506127af6000830187612065565b6127bc6020830186612074565b6127c96040830185612065565b6127d6606083018461278b565b95945050505050565b60006040820190506127f46000830185612074565b6128016020830184612065565b9392505050565b7f4f6e6c79207061727469636970616e74732063616e2064697370757465000000600082015250565b600061283e601d83612227565b915061284982612808565b602082019050919050565b6000602082019050818103600083015261286d81612831565b9050919050565b7f42657420697320616c726561647920756e646572206469737075746500000000600082015250565b60006128aa601c83612227565b91506128b582612874565b602082019050919050565b600060208201905081810360008301526128d98161289d565b9050919050565b7f42657420697320756e6465722064697370757465000000000000000000000000600082015250565b6000612916601483612227565b9150612921826128e0565b602082019050919050565b6000602082019050818103600083015261294581612909565b9050919050565b7f57696e6e6572206d7573742062652061207061727469636970616e7400000000600082015250565b6000612982601c83612227565b915061298d8261294c565b602082019050919050565b600060208201905081810360008301526129b181612975565b9050919050565b7f4f6e6c79207061727469636970616e74732063616e20636f6e6669726d20746860008201527f652077696e6e6572000000000000000000000000000000000000000000000000602082015250565b6000612a14602883612227565b9150612a1f826129b8565b604082019050919050565b60006020820190508181036000830152612a4381612a07565b9050919050565b7f42657420616d6f756e74206d7573742062652067726561746572207468616e2060008201527f3000000000000000000000000000000000000000000000000000000000000000602082015250565b6000612aa6602183612227565b9150612ab182612a4a565b604082019050919050565b60006020820190508181036000830152612ad581612a99565b9050919050565b7f5061727469636970616e7420616464726573732063616e6e6f74206265207a6560008201527f726f000000000000000000000000000000000000000000000000000000000000602082015250565b6000612b38602283612227565b9150612b4382612adc565b604082019050919050565b60006020820190508181036000830152612b6781612b2b565b9050919050565b7f43726561746f722063616e6e6f7420626520746865207061727469636970616e60008201527f7400000000000000000000000000000000000000000000000000000000000000602082015250565b6000612bca602183612227565b9150612bd582612b6e565b604082019050919050565b60006020820190508181036000830152612bf981612bbd565b9050919050565b6000612c0b82611f84565b9150612c1683611f84565b9250828202612c2481611f84565b91508282048414831517612c3b57612c3a6123c8565b5b5092915050565b7f4e487b7100000000000000000000000000000000000000000000000000000000600052601260045260246000fd5b6000612c7c82611f84565b9150612c8783611f84565b925082612c9757612c96612c42565b5b828204905092915050565b6000606082019050612cb76000830186612065565b612cc46020830185612065565b612cd16040830184612074565b949350505050565b7f496e737572616e6365207072656d69756d207472616e73666572206661696c6560008201527f6400000000000000000000000000000000000000000000000000000000000000602082015250565b6000612d35602183612227565b9150612d4082612cd9565b604082019050919050565b60006020820190508181036000830152612d6481612d28565b9050919050565b600060a082019050612d806000830188612074565b612d8d6020830187612065565b612d9a6040830186612065565b612da76060830185612074565b612db4608083018461208f565b9695505050505050565b6000612dc982611f84565b91507fffffffffffffffffffffffffffffffffffffffffffffffffffffffffffffffff8203612dfb57612dfa6123c8565b5b600182019050919050565b7f43616e6e6f7420636c61696d20696e737572616e6365206f6e207265736f6c7660008201527f6564206265747300000000000000000000000000000000000000000000000000602082015250565b6000612e62602783612227565b9150612e6d82612e06565b604082019050919050565b60006020820190508181036000830152612e9181612e55565b9050919050565b7f4e6f20696e737572616e6365206f7074656420666f7220746869732062657400600082015250565b6000612ece601f83612227565b9150612ed982612e98565b602082019050919050565b60006020820190508181036000830152612efd81612ec1565b9050919050565b7f496e737572616e636520616c726561647920636c61696d656400000000000000600082015250565b6000612f3a601983612227565b9150612f4582612f04565b602082019050919050565b60006020820190508181036000830152612f6981612f2d565b9050919050565b7f496e737572616e6365207061796f7574206661696c6564000000000000000000600082015250565b6000612fa6601783612227565b9150612fb182612f70565b602082019050919050565b60006020820190508181036000830152612fd581612f99565b9050919050565b6000606082019050612ff16000830186612074565b612ffe6020830185612065565b61300b6040830184612074565b949350505050565b7f5061796f7574207472616e73666572206661696c656400000000000000000000600082015250565b6000613049601683612227565b915061305482613013565b602082019050919050565b600060208201905081810360008301526130788161303c565b905091905056fea26469706673582212208cd6966a945cf36dcd605ad89a792ec9b028ec6ec64be3d2358a1f4a8c9d89f864736f6c634300081c0033",
    "linkReferences": {},
    "deployedLinkReferences": {}
}